{
  "contractName": "BetAss",
  "abi": [
    {
      "inputs": [
        {
          "internalType": "uint256",
          "name": "_odds",
          "type": "uint256"
        },
        {
          "internalType": "uint256",
          "name": "_stake",
          "type": "uint256"
        },
        {
          "internalType": "bool",
          "name": "_side",
          "type": "bool"
        },
        {
          "internalType": "address",
          "name": "_token_address",
          "type": "address"
        }
      ],
      "stateMutability": "nonpayable",
      "type": "constructor"
    },
    {
      "inputs": [],
      "name": "fundContract",
      "outputs": [
        {
          "internalType": "bool",
          "name": "success",
          "type": "bool"
        }
      ],
      "stateMutability": "nonpayable",
      "type": "function"
    },
    {
      "inputs": [],
      "name": "getOdds",
      "outputs": [
        {
          "internalType": "uint256",
          "name": "curr_odds",
          "type": "uint256"
        }
      ],
      "stateMutability": "view",
      "type": "function",
      "constant": true
    },
    {
      "inputs": [],
      "name": "getOwner",
      "outputs": [
        {
          "internalType": "address",
          "name": "curr_owner",
          "type": "address"
        }
      ],
      "stateMutability": "view",
      "type": "function",
      "constant": true
    },
    {
      "inputs": [],
      "name": "contractAddress",
      "outputs": [
        {
          "internalType": "address",
          "name": "contract_address",
          "type": "address"
        }
      ],
      "stateMutability": "view",
      "type": "function",
      "constant": true
    },
    {
      "inputs": [],
      "name": "tokenAddress",
      "outputs": [
        {
          "internalType": "address",
          "name": "curr_token_address",
          "type": "address"
        }
      ],
      "stateMutability": "view",
      "type": "function",
      "constant": true
    }
  ],
  "bytecode": "0x608060405234801561001057600080fd5b506040516107e13803806107e18339818101604052608081101561003357600080fd5b8101908080519060200190929190805190602001909291908051906020019092919080519060200190929190505050336000806101000a81548173ffffffffffffffffffffffffffffffffffffffff021916908373ffffffffffffffffffffffffffffffffffffffff160217905550836001819055508260048190555081600560006101000a81548160ff02191690831515021790555080600660006101000a81548173ffffffffffffffffffffffffffffffffffffffff021916908373ffffffffffffffffffffffffffffffffffffffff16021790555080600560026101000a81548173ffffffffffffffffffffffffffffffffffffffff021916908373ffffffffffffffffffffffffffffffffffffffff16021790555082600560029054906101000a900473ffffffffffffffffffffffffffffffffffffffff1673ffffffffffffffffffffffffffffffffffffffff166370a082316000809054906101000a900473ffffffffffffffffffffffffffffffffffffffff166040518263ffffffff1660e01b8152600401808273ffffffffffffffffffffffffffffffffffffffff1673ffffffffffffffffffffffffffffffffffffffff16815260200191505060206040518083038186803b15801561020d57600080fd5b505afa158015610221573d6000803e3d6000fd5b505050506040513d602081101561023757600080fd5b81019080805190602001909291905050501161029e576040517f08c379a00000000000000000000000000000000000000000000000000000000081526004018080602001828103825260348152602001806107ad6034913960400191505060405180910390fd5b505050506104fc806102b16000396000f3fe608060405234801561001057600080fd5b50600436106100575760003560e01c80634c5be5741461005c578063893d20e81461007a5780639d76ea58146100c4578063bd097e211461010e578063f6b4dfb414610130575b600080fd5b61006461017a565b6040518082815260200191505060405180910390f35b610082610184565b604051808273ffffffffffffffffffffffffffffffffffffffff1673ffffffffffffffffffffffffffffffffffffffff16815260200191505060405180910390f35b6100cc6101ad565b604051808273ffffffffffffffffffffffffffffffffffffffff1673ffffffffffffffffffffffffffffffffffffffff16815260200191505060405180910390f35b6101166101d7565b604051808215151515815260200191505060405180910390f35b610138610434565b604051808273ffffffffffffffffffffffffffffffffffffffff1673ffffffffffffffffffffffffffffffffffffffff16815260200191505060405180910390f35b6000600154905090565b60008060009054906101000a900473ffffffffffffffffffffffffffffffffffffffff16905090565b6000600660009054906101000a900473ffffffffffffffffffffffffffffffffffffffff16905090565b60008060009054906101000a900473ffffffffffffffffffffffffffffffffffffffff1673ffffffffffffffffffffffffffffffffffffffff163373ffffffffffffffffffffffffffffffffffffffff161461027e576040517f08c379a000000000000000000000000000000000000000000000000000000000815260040180806020018281038252602981526020018061049e6029913960400191505060405180910390fd5b6000600560029054906101000a900473ffffffffffffffffffffffffffffffffffffffff1673ffffffffffffffffffffffffffffffffffffffff166323b872dd6000809054906101000a900473ffffffffffffffffffffffffffffffffffffffff16306004546040518463ffffffff1660e01b8152600401808473ffffffffffffffffffffffffffffffffffffffff1673ffffffffffffffffffffffffffffffffffffffff1681526020018373ffffffffffffffffffffffffffffffffffffffff1673ffffffffffffffffffffffffffffffffffffffff1681526020018281526020019350505050602060405180830381600087803b15801561038057600080fd5b505af1158015610394573d6000803e3d6000fd5b505050506040513d60208110156103aa57600080fd5b8101908080519060200190929190505050905080610413576040517f08c379a000000000000000000000000000000000000000000000000000000000815260040180806020018281038252606181526020018061043d6061913960800191505060405180910390fd5b80600560016101000a81548160ff0219169083151502179055508091505090565b60003090509056fe66756e64696e6720776173206e6f74207375636365737366756c2c20706c65617365206d616b65207375726520636f6e74726163742068617320746865206e65636365737361727920616c6c6f77616e636520666f72207468697320746f6b656e6f6e6c792074686520636f6e7472616374206f776e65722063616e2066756e64207468697320626574a26469706673582212209153e64130881feaa88b61e8e6f1ac370c0ab88d2b0a3e38816b2d75a9a67e7b64736f6c63430006090033496e73756666696369656e742062616c616e63653a2063616e2774207374616b65206d6f7265207468616e20796f752068617665",
  "immutableReferences": {},
  "source": "/*\nImplements a betting interface for simple wagers:\n\nBet {\n\towner -- creator of the contract that defines its parameters.\n\tconstructor (odds, stake, side) {\n\t\t- creates the bet defined by odds and stake.\n\t\t- places the message sender to the desired side.\n\t\t- sets the owner to message sender.\n\t}\n\taddStake(stake) {\n\t\t- makes sure contract capacity can still accept stake.\n\t\t- message sender stakes on the opposite side of the bet from contract owner.\n\t}\n\texecute() {\n\t\t- Checks that sender is bet creator (only they can execute)\n\t\t- Checks that the contract can be execute (when both sides of the bet are fully subscribed).\n\t\t- Runs the random mechanism resolving the bet.\n\t\t- Awards the winner the pool of coin.\n\t}\n}\n*/\n\npragma solidity ^0.6.9;\n\nimport \"./EIP20Interface.sol\";\n\ncontract BetAss {\n\tuint256 constant odds_denom = 10000; // what we divide odds by for the chance of a true outcome\n\taddress owner; // the address of the contract creator, will be owner b/c they fully own one side of bet\n\tuint256 odds; // chance of true outcome --> odds / odds_denom\n\t// Formula to ensure equal odds weighted betting pool:\n\t// (1 - odds/odds_denom) * true_stake = (odds/odds_denom) * false_stake\n\tuint256 true_stake;\n\tuint256 false_stake;\n\tuint256 owner_stake; // redundant, but useful to have around\n\tbool owner_side;\n\tbool funded; // whether the owner has staked their side of the bet.\n\t// token that will be what this bet is denominated in\n\tEIP20Interface token;\n\taddress token_address;\n\tconstructor(\n\t\tuint256 _odds, \n\t\tuint256 _stake, // how much the contract owner is staking on their side of the bet\n\t\tbool _side, // what side of the bet the contract owner is on.\n\t\taddress _token_address \n\t) public {\n    \t// set the owner of the contract\n    \towner = msg.sender;\n    \todds = _odds;\n    \towner_stake = _stake;\n    \towner_side = _side;\n    \t// creates an instance of the token contract to be used throughout the bet contract\n    \ttoken_address = _token_address;\n    \ttoken = EIP20Interface(_token_address);\n    \t// does a balance check\n    \trequire(token.balanceOf(owner) > _stake, \"Insufficient balance: can't stake more than you have\");\n    \t// TODO: deducts the stake from the owner\n    \t\n    \t// TODO: sets the contract bet parameters\n    \t\n    \t\n\t}\n\n\t/*\n\tMethod must be called by the contract owner. The contract owner must have already given this contract\n\tthe neccessary allowance to stake the entire bet. If successful, funded var becomes true, and now betters\n\tcan stake on the other side of the bet. If not successful, the contract will remain in the unstaked state,\n\twhere no other betters can enter.\n\t*/\n\tfunction fundContract() public returns(bool success) {\n\t\trequire(msg.sender == owner, \"only the contract owner can fund this bet\");\n\t\tbool transfered = token.transferFrom(owner, address(this), owner_stake);\n\t\trequire (transfered, \"funding was not successful, please make sure contract has the neccessary allowance for this token\");\n\t\tfunded = transfered;\n\t\treturn transfered;\t\t\n\t}\n\n\t/* Returns the odds of this contract */\n\tfunction getOdds() public view returns(uint256 curr_odds) {\n\t\treturn odds;\n\t}\n\n\tfunction getOwner() public view returns(address curr_owner) {\n\t\treturn owner;\n\t}\n\n\tfunction contractAddress() public view returns(address contract_address) {\n\t\treturn address(this);\n\t}\n\n\tfunction tokenAddress() public view returns(address curr_token_address) {\n\t\treturn token_address;\n\t}\n}\n\n",
  "sourcePath": "/Users/aram/code/projects/AssCoin/contracts/BetAss.sol",
  "compiler": {
    "name": "solc",
    "version": "0.6.9+commit.3e3065ac.Emscripten.clang"
  },
  "schemaVersion": "3.2.1",
  "updatedAt": "2020-07-04T06:48:25.465Z",
  "networkType": "ethereum",
  "devdoc": {
    "methods": {}
  },
  "userdoc": {
    "methods": {}
  }
}