{
  "contractName": "BetAss",
  "abi": [
    {
      "inputs": [
        {
          "internalType": "uint256",
          "name": "_odds",
          "type": "uint256"
        },
        {
          "internalType": "uint256",
          "name": "_stake",
          "type": "uint256"
        },
        {
          "internalType": "address",
          "name": "_token_address",
          "type": "address"
        }
      ],
      "stateMutability": "nonpayable",
      "type": "constructor"
    },
    {
      "inputs": [
        {
          "internalType": "address",
          "name": "",
          "type": "address"
        }
      ],
      "name": "public_stakes",
      "outputs": [
        {
          "internalType": "uint256",
          "name": "",
          "type": "uint256"
        }
      ],
      "stateMutability": "view",
      "type": "function",
      "constant": true
    },
    {
      "inputs": [],
      "name": "fundContract",
      "outputs": [
        {
          "internalType": "bool",
          "name": "success",
          "type": "bool"
        }
      ],
      "stateMutability": "nonpayable",
      "type": "function"
    },
    {
      "inputs": [
        {
          "internalType": "uint256",
          "name": "stake",
          "type": "uint256"
        }
      ],
      "name": "addStake",
      "outputs": [
        {
          "internalType": "bool",
          "name": "success",
          "type": "bool"
        }
      ],
      "stateMutability": "nonpayable",
      "type": "function"
    },
    {
      "inputs": [],
      "name": "executeBet",
      "outputs": [
        {
          "internalType": "bool",
          "name": "outcome",
          "type": "bool"
        }
      ],
      "stateMutability": "nonpayable",
      "type": "function"
    },
    {
      "inputs": [],
      "name": "payoutWinner",
      "outputs": [
        {
          "internalType": "bool",
          "name": "success",
          "type": "bool"
        }
      ],
      "stateMutability": "nonpayable",
      "type": "function"
    },
    {
      "inputs": [],
      "name": "closeContract",
      "outputs": [
        {
          "internalType": "bool",
          "name": "success",
          "type": "bool"
        }
      ],
      "stateMutability": "nonpayable",
      "type": "function"
    },
    {
      "inputs": [
        {
          "internalType": "address",
          "name": "staker",
          "type": "address"
        }
      ],
      "name": "getStake",
      "outputs": [
        {
          "internalType": "uint256",
          "name": "_stake",
          "type": "uint256"
        }
      ],
      "stateMutability": "view",
      "type": "function",
      "constant": true
    },
    {
      "inputs": [],
      "name": "getOdds",
      "outputs": [
        {
          "internalType": "uint256",
          "name": "_odds",
          "type": "uint256"
        }
      ],
      "stateMutability": "view",
      "type": "function",
      "constant": true
    },
    {
      "inputs": [],
      "name": "getOwner",
      "outputs": [
        {
          "internalType": "address",
          "name": "_owner",
          "type": "address"
        }
      ],
      "stateMutability": "view",
      "type": "function",
      "constant": true
    },
    {
      "inputs": [],
      "name": "getTotalPublicStake",
      "outputs": [
        {
          "internalType": "uint256",
          "name": "_pub_stake",
          "type": "uint256"
        }
      ],
      "stateMutability": "view",
      "type": "function",
      "constant": true
    },
    {
      "inputs": [],
      "name": "getCurrentPublicStake",
      "outputs": [
        {
          "internalType": "uint256",
          "name": "_curr_pub_stake",
          "type": "uint256"
        }
      ],
      "stateMutability": "view",
      "type": "function",
      "constant": true
    },
    {
      "inputs": [],
      "name": "getOwnerFunded",
      "outputs": [
        {
          "internalType": "bool",
          "name": "_owner_funded",
          "type": "bool"
        }
      ],
      "stateMutability": "view",
      "type": "function",
      "constant": true
    },
    {
      "inputs": [],
      "name": "getPublicFunded",
      "outputs": [
        {
          "internalType": "bool",
          "name": "_public_funded",
          "type": "bool"
        }
      ],
      "stateMutability": "view",
      "type": "function",
      "constant": true
    },
    {
      "inputs": [],
      "name": "contractAddress",
      "outputs": [
        {
          "internalType": "address",
          "name": "_contract_address",
          "type": "address"
        }
      ],
      "stateMutability": "view",
      "type": "function",
      "constant": true
    },
    {
      "inputs": [],
      "name": "tokenAddress",
      "outputs": [
        {
          "internalType": "address",
          "name": "_token_address",
          "type": "address"
        }
      ],
      "stateMutability": "view",
      "type": "function",
      "constant": true
    },
    {
      "inputs": [],
      "name": "getWinner",
      "outputs": [
        {
          "internalType": "bool",
          "name": "ownerWon",
          "type": "bool"
        }
      ],
      "stateMutability": "view",
      "type": "function",
      "constant": true
    }
  ],
  "bytecode": "0x60806040523480156200001157600080fd5b5060405162001aee38038062001aee833981810160405260608110156200003757600080fd5b81019080805190602001909291908051906020019092919080519060200190929190505050336000806101000a81548173ffffffffffffffffffffffffffffffffffffffff021916908373ffffffffffffffffffffffffffffffffffffffff1602179055508260018190555081600281905550600254600154606481620000ba57fe5b0402600481905550606467ffffffffffffffff81118015620000db57600080fd5b506040519080825280602002602001820160405280156200010b5781602001602082028036833780820191505090505b50600690805190602001906200012392919062000306565b5080600960006101000a81548173ffffffffffffffffffffffffffffffffffffffff021916908373ffffffffffffffffffffffffffffffffffffffff16021790555080600860046101000a81548173ffffffffffffffffffffffffffffffffffffffff021916908373ffffffffffffffffffffffffffffffffffffffff16021790555081600860049054906101000a900473ffffffffffffffffffffffffffffffffffffffff1673ffffffffffffffffffffffffffffffffffffffff166370a082316000809054906101000a900473ffffffffffffffffffffffffffffffffffffffff166040518263ffffffff1660e01b8152600401808273ffffffffffffffffffffffffffffffffffffffff1673ffffffffffffffffffffffffffffffffffffffff16815260200191505060206040518083038186803b1580156200026857600080fd5b505afa1580156200027d573d6000803e3d6000fd5b505050506040513d60208110156200029457600080fd5b810190808051906020019092919050505011620002fd576040517f08c379a000000000000000000000000000000000000000000000000000000000815260040180806020018281038252603481526020018062001aba6034913960400191505060405180910390fd5b505050620003db565b82805482825590600052602060002090810192821562000382579160200282015b82811115620003815782518260006101000a81548173ffffffffffffffffffffffffffffffffffffffff021916908373ffffffffffffffffffffffffffffffffffffffff1602179055509160200191906001019062000327565b5b50905062000391919062000395565b5090565b620003d891905b80821115620003d457600081816101000a81549073ffffffffffffffffffffffffffffffffffffffff0219169055506001016200039c565b5090565b90565b6116cf80620003eb6000396000f3fe608060405234801561001057600080fd5b50600436106100ff5760003560e01c80638e7ea5b211610097578063bd097e2111610066578063bd097e2114610350578063dd6e67c214610372578063eb4f16b514610390578063f6b4dfb4146103d6576100ff565b80638e7ea5b21461026e5780639d76ea58146102905780639fdb8ce0146102da578063ba62f15e146102f8576100ff565b8063610be654116100d3578063610be654146101885780637a766460146101aa578063893d20e8146102025780638a17486e1461024c576100ff565b80624615bc14610104578063075524631461012657806337a1705d146101485780634c5be5741461016a575b600080fd5b61010c610420565b604051808215151515815260200191505060405180910390f35b61012e610437565b604051808215151515815260200191505060405180910390f35b610150610742565b604051808215151515815260200191505060405180910390f35b610172610940565b6040518082815260200191505060405180910390f35b61019061094a565b604051808215151515815260200191505060405180910390f35b6101ec600480360360208110156101c057600080fd5b81019080803573ffffffffffffffffffffffffffffffffffffffff169060200190929190505050610a90565b6040518082815260200191505060405180910390f35b61020a610ad9565b604051808273ffffffffffffffffffffffffffffffffffffffff1673ffffffffffffffffffffffffffffffffffffffff16815260200191505060405180910390f35b610254610b02565b604051808215151515815260200191505060405180910390f35b610276610b19565b604051808215151515815260200191505060405180910390f35b610298610b59565b604051808273ffffffffffffffffffffffffffffffffffffffff1673ffffffffffffffffffffffffffffffffffffffff16815260200191505060405180910390f35b6102e2610b83565b6040518082815260200191505060405180910390f35b61033a6004803603602081101561030e57600080fd5b81019080803573ffffffffffffffffffffffffffffffffffffffff169060200190929190505050610b8d565b6040518082815260200191505060405180910390f35b610358610ba5565b604051808215151515815260200191505060405180910390f35b61037a610ccc565b6040518082815260200191505060405180910390f35b6103bc600480360360208110156103a657600080fd5b8101908080359060200190929190505050610cd6565b604051808215151515815260200191505060405180910390f35b6103de610fa4565b604051808273ffffffffffffffffffffffffffffffffffffffff1673ffffffffffffffffffffffffffffffffffffffff16815260200191505060405180910390f35b6000600360009054906101000a900460ff16905090565b6000600860029054906101000a900460ff1661049e576040517f08c379a000000000000000000000000000000000000000000000000000000000815260040180806020018281038252602781526020018061164a6027913960400191505060405180910390fd5b6000600454600254019050600060018111156104b657fe5b600860019054906101000a900460ff1660018111156104d157fe5b141561050957610503306000809054906101000a900473ffffffffffffffffffffffffffffffffffffffff1683610fac565b5061071f565b60008060008090505b6006805490508110156105f857600560006006838154811061053057fe5b9060005260206000200160009054906101000a900473ffffffffffffffffffffffffffffffffffffffff1673ffffffffffffffffffffffffffffffffffffffff1673ffffffffffffffffffffffffffffffffffffffff1681526020019081526020016000205492508360045484816105a457fe5b040291506105ea30600683815481106105b957fe5b9060005260206000200160009054906101000a900473ffffffffffffffffffffffffffffffffffffffff1684610fac565b508080600101915050610512565b506000600860049054906101000a900473ffffffffffffffffffffffffffffffffffffffff1673ffffffffffffffffffffffffffffffffffffffff166370a08231306040518263ffffffff1660e01b8152600401808273ffffffffffffffffffffffffffffffffffffffff1673ffffffffffffffffffffffffffffffffffffffff16815260200191505060206040518083038186803b15801561069a57600080fd5b505afa1580156106ae573d6000803e3d6000fd5b505050506040513d60208110156106c457600080fd5b8101908080519060200190929190505050905061071a3060066000815481106106e957fe5b9060005260206000200160009054906101000a900473ffffffffffffffffffffffffffffffffffffffff1683610fac565b505050505b6001600860036101000a81548160ff021916908315150217905550600191505090565b60008060009054906101000a900473ffffffffffffffffffffffffffffffffffffffff1673ffffffffffffffffffffffffffffffffffffffff163373ffffffffffffffffffffffffffffffffffffffff16146107e9576040517f08c379a00000000000000000000000000000000000000000000000000000000081526004018080602001828103825260308152602001806115516030913960400191505060405180910390fd5b600360009054906101000a900460ff1661084e576040517f08c379a00000000000000000000000000000000000000000000000000000000081526004018080602001828103825260328152602001806115e06032913960400191505060405180910390fd5b600860009054906101000a900460ff166108b3576040517f08c379a00000000000000000000000000000000000000000000000000000000081526004018080602001828103825260418152602001806114206041913960600191505060405180910390fd5b60006108bf6064611263565b90506001600860026101000a81548160ff02191690831515021790555060015481101561090f576000600860016101000a81548160ff0219169083600181111561090557fe5b0217905550610934565b6001600860016101000a81548160ff0219169083600181111561092e57fe5b02179055505b60015481101591505090565b6000600154905090565b60008060009054906101000a900473ffffffffffffffffffffffffffffffffffffffff1673ffffffffffffffffffffffffffffffffffffffff163373ffffffffffffffffffffffffffffffffffffffff16146109f1576040517f08c379a00000000000000000000000000000000000000000000000000000000081526004018080602001828103825260268152602001806115816026913960400191505060405180910390fd5b600860039054906101000a900460ff16610a56576040517f08c379a00000000000000000000000000000000000000000000000000000000081526004018080602001828103825260408152602001806114ae6040913960400191505060405180910390fd5b6000809054906101000a900473ffffffffffffffffffffffffffffffffffffffff1673ffffffffffffffffffffffffffffffffffffffff16ff5b6000600560008373ffffffffffffffffffffffffffffffffffffffff1673ffffffffffffffffffffffffffffffffffffffff168152602001908152602001600020549050919050565b60008060009054906101000a900473ffffffffffffffffffffffffffffffffffffffff16905090565b6000600860009054906101000a900460ff16905090565b6000806001811115610b2757fe5b600860019054906101000a900460ff166001811115610b4257fe5b1415610b515760019050610b56565b600090505b90565b6000600960009054906101000a900473ffffffffffffffffffffffffffffffffffffffff16905090565b6000600454905090565b60056020528060005260406000206000915090505481565b60008060009054906101000a900473ffffffffffffffffffffffffffffffffffffffff1673ffffffffffffffffffffffffffffffffffffffff163373ffffffffffffffffffffffffffffffffffffffff1614610c4c576040517f08c379a00000000000000000000000000000000000000000000000000000000081526004018080602001828103825260298152602001806116716029913960400191505060405180910390fd5b610c7a6000809054906101000a900473ffffffffffffffffffffffffffffffffffffffff16306002546112a7565b50610ca96000809054906101000a900473ffffffffffffffffffffffffffffffffffffffff1630600254610fac565b506001600360006101000a81548160ff0219169083151502179055506001905090565b6000600754905090565b6000600360009054906101000a900460ff16610d3d576040517f08c379a000000000000000000000000000000000000000000000000000000000815260040180806020018281038252604d815260200180611461604d913960600191505060405180910390fd5b600860009054906101000a900460ff1615610da3576040517f08c379a000000000000000000000000000000000000000000000000000000000815260040180806020018281038252603d815260200180611514603d913960400191505060405180910390fd5b60075460045403821115610e02576040517f08c379a00000000000000000000000000000000000000000000000000000000081526004018080602001828103825260388152602001806116126038913960400191505060405180910390fd5b60008211610e5b576040517f08c379a00000000000000000000000000000000000000000000000000000000081526004018080602001828103825260268152602001806114ee6026913960400191505060405180910390fd5b610e663330846112a7565b50610e72333084610fac565b506000600560003373ffffffffffffffffffffffffffffffffffffffff1673ffffffffffffffffffffffffffffffffffffffff168152602001908152602001600020541415610f1a5733600660016006805490500381548110610ed157fe5b9060005260206000200160006101000a81548173ffffffffffffffffffffffffffffffffffffffff021916908373ffffffffffffffffffffffffffffffffffffffff1602179055505b81600560003373ffffffffffffffffffffffffffffffffffffffff1673ffffffffffffffffffffffffffffffffffffffff16815260200190815260200160002060008282540192505081905550816007600082825401925050819055506004546007541415610f9f576001600860006101000a81548160ff0219169083151502179055505b919050565b600030905090565b60003073ffffffffffffffffffffffffffffffffffffffff168473ffffffffffffffffffffffffffffffffffffffff1614156110c857600860049054906101000a900473ffffffffffffffffffffffffffffffffffffffff1673ffffffffffffffffffffffffffffffffffffffff1663095ea7b384846040518363ffffffff1660e01b8152600401808373ffffffffffffffffffffffffffffffffffffffff1673ffffffffffffffffffffffffffffffffffffffff16815260200182815260200192505050602060405180830381600087803b15801561108b57600080fd5b505af115801561109f573d6000803e3d6000fd5b505050506040513d60208110156110b557600080fd5b8101908080519060200190929190505050505b6000600860049054906101000a900473ffffffffffffffffffffffffffffffffffffffff1673ffffffffffffffffffffffffffffffffffffffff166323b872dd8686866040518463ffffffff1660e01b8152600401808473ffffffffffffffffffffffffffffffffffffffff1673ffffffffffffffffffffffffffffffffffffffff1681526020018373ffffffffffffffffffffffffffffffffffffffff1673ffffffffffffffffffffffffffffffffffffffff1681526020018281526020019350505050602060405180830381600087803b1580156111a757600080fd5b505af11580156111bb573d6000803e3d6000fd5b505050506040513d60208110156111d157600080fd5b8101908080519060200190929190505050905080611257576040517f08c379a000000000000000000000000000000000000000000000000000000000815260040180806020018281038252601d8152602001807f746f6b656e207472616e73666572206e6f74207375636365737366756c00000081525060200191505060405180910390fd5b60019150509392505050565b600081424460405160200180838152602001828152602001925050506040516020818303038152906040528051906020012060001c8161129f57fe5b069050919050565b600080600860049054906101000a900473ffffffffffffffffffffffffffffffffffffffff1673ffffffffffffffffffffffffffffffffffffffff1663dd62ed3e86866040518363ffffffff1660e01b8152600401808373ffffffffffffffffffffffffffffffffffffffff1673ffffffffffffffffffffffffffffffffffffffff1681526020018273ffffffffffffffffffffffffffffffffffffffff1673ffffffffffffffffffffffffffffffffffffffff1681526020019250505060206040518083038186803b15801561137d57600080fd5b505afa158015611391573d6000803e3d6000fd5b505050506040513d60208110156113a757600080fd5b8101908080519060200190929190505050905082811015611413576040517f08c379a00000000000000000000000000000000000000000000000000000000081526004018080602001828103825260398152602001806115a76039913960400191505060405180910390fd5b6001915050939250505056fe5468697320636f6e74726163742773207075626c69632062657474696e6720706f6f6c20686173206e6f74206265656e2066756c6c792066756e646564207965745468697320636f6e7472616374206973206e6f7420616363657074696e67207075626c6963207374616b65733a20746865206f776e657220686173206e6f742066756e64656420697420796574436f6e74726163742063616e206f6e6c7920626520636c6f736564206166746572207468652062657420706f6f6c20686173206265656e2070616964206f75744d757374207374616b65206120706f73697469766520616d6f756e74206f6620746f6b656e735468697320636f6e74726163742068617320616c7265616479206265656e2066756c6c792066756e646564206279207075626c6963207374616b6572734f6e6c792074686520636f6e7472616374206f776e65722063616e20657865637574652074686520636f6e74726163744f6e6c7920746865206f776e65722063616e20636c6f7365207468697320636f6e7472616374496e73756666696369656e7420616c6c6f77616e636520666f7220726571756573746564207374616b6520746f2062652065786563757465645468697320636f6e747261637420686173206e6f74206265656e2066756e64656420627920697473206f776e657220796574526571756573746564207374616b6520776f756c64206f76657273756273637269626520746865206265743a207374616b65206c6573732e4d75737420657865637574652074686520636f6e7472616374206265666f7265207061796f75746f6e6c792074686520636f6e7472616374206f776e65722063616e2066756e64207468697320626574a26469706673582212207d1f23c9dc05944c8afbcdbc52d7ecc3aec1fcb7919d20c021628910f3a4468f64736f6c63430006090033496e73756666696369656e742062616c616e63653a2063616e2774207374616b65206d6f7265207468616e20796f752068617665",
  "immutableReferences": {},
  "source": "/*\nImplements a betting interface for simple wagers:\n\nBet {\n\towner -- creator of the contract that defines its parameters.\n\tconstructor (odds, stake, side) {\n\t\t- creates the bet defined by odds and stake.\n\t\t- places the message sender to the desired side.\n\t\t- sets the owner to message sender.\n\t}\n\taddStake(stake) {\n\t\t- makes sure contract capacity can still accept stake.\n\t\t- message sender stakes on the opposite side of the bet from contract owner.\n\t}\n\texecute() {\n\t\t- Checks that sender is bet creator (only they can execute)\n\t\t- Checks that the contract can be execute (when both sides of the bet are fully subscribed).\n\t\t- Runs the random mechanism resolving the bet.\n\t\t- Awards the winner the pool of coin.\n\t}\n}\n*/\n\npragma solidity ^0.6.9;\n\nimport \"./EIP20Interface.sol\";\n\ncontract BetAss {\n\tuint256 constant odds_denom = 100; // what we divide odds by for the chance of a true outcome\n\tuint256 constant MAX_PUB_STAKERS = 100; // what we use to instantiate the array\n\t\n\taddress payable owner; // the address of the contract creator, will be owner b/c they fully own one side of bet\n\tuint256 odds; // chance of true outcome --> odds / odds_denom\n\t\n\t// Formula to ensure equal odds weighted betting pool:\n\t// (1 - odds/odds_denom) * true_stake = (odds/odds_denom) * false_stake\n\t\n\t// vars for the owner information\n\tuint256 owner_stake;\n\tbool owner_funded; // whether the owner has staked their side of the bet.\n\t\n\t// vars for the public stakers: call public whoever takes the opposite side of the owner\n\tuint256 total_public_stake; // total value that the public needs to put on the opposite side of this bet\n\tmapping (address => uint256) public public_stakes; // mapping to hold the list of all public stakers\n\taddress[] public_stakers; // place to store all addresses that have staked, just keys of above map\n\tuint256 curr_public_stake; // how much has currently been staked by the public\n\tbool public_funded; // only true when total_public_stake == curr_public_stake\n\t\n\tenum Outcome { OWNER, PUBLIC } // for the 2 possible winners of the contract\n\tOutcome winner;\n\tbool executed; // flag after the execute function has been run.\n\tbool paid; // flag after the winnings have been paid out\n\n\t// token that will be what this bet is denominated in\n\tEIP20Interface token;\n\taddress token_address;\n\n\tconstructor(\n\t\tuint256 _odds, \n\t\tuint256 _stake, // how much the contract owner is staking on their side of the bet\n\t\taddress _token_address \n\t) public {\n    \t// set the owner of the contract\n    \towner = msg.sender;\n    \todds = _odds;\n    \towner_stake = _stake;\n    \t// TODO: higher precision calculation\n    \ttotal_public_stake = (odds_denom / odds) * owner_stake; \n    \tpublic_stakers = new address[](MAX_PUB_STAKERS);\n    \t// creates an instance of the token contract to be used throughout the bet contract\n    \ttoken_address = _token_address;\n    \ttoken = EIP20Interface(_token_address);\n    \t// does a balance check\n    \trequire(token.balanceOf(owner) > _stake, \"Insufficient balance: can't stake more than you have\");    \t\n\t}\n\n\t/*\n\tMethod must be called by the contract owner. The contract owner must have already given this contract\n\tthe neccessary allowance to stake the entire bet. If successful, funded var becomes true, and now betters\n\tcan stake on the other side of the bet. If not successful, the contract will remain in the unstaked state,\n\twhere no other betters can enter.\n\t*/\n\tfunction fundContract() public returns(bool success) {\n\t\t// verifies the sender\n\t\trequire(msg.sender == owner, \"only the contract owner can fund this bet\");\n\t\t// verifies that contract has sufficient allowance to initiate the transfer\n\t\tcheckAllowance(owner, address(this), owner_stake);\n\t\t// Initiates the transfer\n\t\ttransferCoin(owner, address(this), owner_stake);\n\t\t// only reach this line if the contract has been funded\n\t\towner_funded = true;\n\t\treturn true;\t\t\n\t}\n\n\t/*\n\tWill only succeed if stake < token allowance and stake < notowner_stake.\n\tAdds the message sender to the pool of bets taking the opposite side of the contract\n\towner's bet. Payout is proportional to stake percent of total pool.\n\t*/\n\tfunction addStake(uint256 stake) public returns(bool success) {\n\t\t// checks that the owner has funded this contract\n\t\t// TODO: might not actually need this check, but that's a design decision\n\t\trequire(owner_funded, \"This contract is not accepting public stakes: the owner has not funded it yet\");\n\t\t// check that the contract has not yet been fully funded by the public\n\t\trequire(!public_funded, \"This contract has already been fully funded by public stakers\");\n\t\t// checks that there's enough room left in the public money pool\n\t\trequire(stake <= total_public_stake - curr_public_stake,\n\t\t\t\t\"Requested stake would oversubscribe the bet: stake less.\");\n\t\t// makes sure stake is nonzero\n\t\trequire(stake > 0, \"Must stake a positive amount of tokens\");\n\t\t// checks that there is sufficient alloance\n\t\tcheckAllowance(msg.sender, address(this), stake);\n\t\t// initiates the transfer\n\t\ttransferCoin(msg.sender, address(this), stake);\n\t\t// means we succeeded, so add msg.sender to the public stakers\n\t\tif (public_stakes[msg.sender] == 0) {\n\t\t\t// means that this sender has not staked before\n\t\t\tpublic_stakers[public_stakers.length-1] = msg.sender;\n\t\t}\n\t\tpublic_stakes[msg.sender] += stake; // maps are 0 initialized, so this is fine\\\n\t\tcurr_public_stake += stake;\n\t\t// updates the public_funded var\n\t\tif (curr_public_stake == total_public_stake) {\n\t\t\tpublic_funded = true;\n\t\t}\n\t}\n\n\t/*\n\tExecute the contract in the following steps:\n\t- Check that the contract can be executed.\n\t- Run the random number generator.\n\t- Set winner var to owner or public.\n\t*/\n\tfunction executeBet() public returns(bool outcome) {\n\t\t// checks that the owner is executing the contract\n\t\trequire(msg.sender == owner, \"Only the contract owner can execute the contract\");\n\t\t// make sure that both sides of the bet are funded\n\t\trequire(owner_funded, \"This contract has not been funded by its owner yet\");\n\t\trequire(public_funded, \"This contract's public betting pool has not been fully funded yet\");\n\t\t// Run the RNG, effectively executing the bet\n\t\tuint256 rand = randomInt(odds_denom);\n\t\texecuted = true;\n\t\t// By definition, the owner always takes the under.\n \t\tif (rand < odds) {\n\t\t\t// means the owner won\n\t\t\twinner = Outcome.OWNER;\n\t\t} else {\n\t\t\t// means the public won\n\t\t\twinner = Outcome.PUBLIC;\n\t\t}\n\t\treturn !(rand < odds); // returns if the owner won the bet\n\t}\n\n\t/*\n\tThe randomness engine of this contract. Will return a pseudo random integer\n\tin the range [0, max).\n\tTODO: currently just returning 1 always for testing.\n\t*/\n\tfunction randomInt(uint256 max) internal returns (uint256 rand) {\n\t\treturn uint256(keccak256(abi.encode(block.timestamp, block.difficulty)))%max;\n\t}\n\n\t/*\t\n\tOnce the contract has been executed, anyone can call this function to payout\n\tthe winner of the bet.\n\t*/\n\tfunction payoutWinner() public returns (bool success) {\n\t\t// check that the contract has been executed\n\t\trequire(executed, \"Must execute the contract before payout\");\n\t\t// pays out depending on the winner\n\t\tuint256 payout = owner_stake + total_public_stake;\n\t\tif (winner == Outcome.OWNER) {\n\t\t\t// means the contract owner gets the full balance\n\t\t\t// does the transfer\n\t\t\ttransferCoin(address(this), owner, payout);\n\t\t} else {\n\t\t\tuint256 contribution;\n\t\t\tuint256 pub_payout;\n\t\t\tfor (uint i=0; i < public_stakers.length; i++) {\n\t\t\t\t// calculates the addresses contribution\n\t\t\t\tcontribution = public_stakes[public_stakers[i]];\n\t\t\t\t// calculates how much payout they get\n\t\t\t\tpub_payout = (contribution / total_public_stake) * payout;\n\t\t\t\t// does the transfer\n\t\t\t\ttransferCoin(address(this), public_stakers[i], pub_payout);\n\t\t\t}\n\t\t\t// pays the first public staker whatever was left over\n\t\t\tuint256 leftover = token.balanceOf(address(this));\n\t\t\ttransferCoin(address(this), public_stakers[0], leftover);\n\t\t}\n\t\tpaid = true;\n\t\treturn true;\n\t}\n\n\t/*\n\tSelf destruct function to run after the bet has been executed and payed out.\n\tNeeds to be run by the contract owner.\n\t*/\n\tfunction closeContract() public returns (bool success) {\n\t\t// checks that the call is coming from the contract owner\n\t\trequire(msg.sender == owner, \"Only the owner can close this contract\");\n\t\t// checks that the contract has already been paid out\n\t\trequire(paid, \"Contract can only be closed after the bet pool has been paid out\");\n\t\tselfdestruct(owner);\n\t\treturn true;\n\t}\n\n\t// \n\t// TRANSACTION HELPER FUNCTIONS\n\t//\n\t/* checks that token allowance from --> to is > min */\n\tfunction checkAllowance(address _from, address _to, uint256 min)  internal returns(bool success){\n\t\tuint256 allowed = token.allowance(_from, _to);\n\t\trequire(allowed >= min, \"Insufficient allowance for requested stake to be executed\");\n\t\treturn true;\n\t}\n\n\t/* Helper function for doing coin transfers. Includes an error message.*/\t\n\tfunction transferCoin(address _from, address _to, uint256 amount) internal returns(bool success) {\n\t\t// if sending coin from this contract, adds an allowance\n\t\tif (_from == address(this)) {\n\t\t\ttoken.approve(_to, amount);\n\t\t}\n\t\tbool transferred = token.transferFrom(_from, _to, amount);\n\t\trequire(transferred, \"token transfer not successful\");\n\t\treturn true;\n\t}\n\n\t//\n\t// VARIABLE GET FUNCTIONS\n\t//\n\t/*Returns the amount staker has staked in the public pool.*/\n\tfunction getStake(address staker) public view returns(uint256 _stake) {\n\t\treturn public_stakes[staker];\n\t}\n\n\tfunction getOdds() public view returns(uint256 _odds) {\n\t\treturn odds;\n\t}\n\n\tfunction getOwner() public view returns(address _owner) {\n\t\treturn owner;\n\t}\n\n\tfunction getTotalPublicStake() public view returns(uint256 _pub_stake) {\n\t\treturn total_public_stake;\n\t}\n\n\tfunction getCurrentPublicStake() public view returns(uint256 _curr_pub_stake) {\n\t\treturn curr_public_stake;\n\t}\n\n\tfunction getOwnerFunded() public view returns(bool _owner_funded) {\n\t\treturn owner_funded;\n\t}\n\n\tfunction getPublicFunded() public view returns(bool _public_funded) {\n\t\treturn public_funded;\n\t}\n\n\tfunction contractAddress() public view returns(address _contract_address) {\n\t\treturn address(this);\n\t}\n\n\tfunction tokenAddress() public view returns(address _token_address) {\n\t\treturn token_address;\n\t}\n\n\tfunction getWinner() public view returns(bool ownerWon) {\n\t\tif (winner == Outcome.OWNER) {\n\t\t\treturn true;\n\t\t} else {\n\t\t\treturn false;\n\t\t}\n\t}\n}\n\n",
  "sourcePath": "/Users/aram/code/projects/AssCoin/contracts/BetAss.sol",
  "compiler": {
    "name": "solc",
    "version": "0.6.9+commit.3e3065ac.Emscripten.clang"
  },
  "schemaVersion": "3.2.1",
  "updatedAt": "2020-07-04T21:29:37.344Z",
  "networkType": "ethereum",
  "devdoc": {
    "methods": {}
  },
  "userdoc": {
    "methods": {}
  }
}