{
  "contractName": "BetAss",
  "abi": [
    {
      "inputs": [
        {
          "internalType": "uint256",
          "name": "_odds",
          "type": "uint256"
        },
        {
          "internalType": "uint256",
          "name": "_stake",
          "type": "uint256"
        },
        {
          "internalType": "bool",
          "name": "_side",
          "type": "bool"
        },
        {
          "internalType": "address",
          "name": "_token_address",
          "type": "address"
        }
      ],
      "stateMutability": "nonpayable",
      "type": "constructor"
    },
    {
      "inputs": [
        {
          "internalType": "address",
          "name": "",
          "type": "address"
        }
      ],
      "name": "public_stakes",
      "outputs": [
        {
          "internalType": "uint256",
          "name": "",
          "type": "uint256"
        }
      ],
      "stateMutability": "view",
      "type": "function",
      "constant": true
    },
    {
      "inputs": [],
      "name": "fundContract",
      "outputs": [
        {
          "internalType": "bool",
          "name": "success",
          "type": "bool"
        }
      ],
      "stateMutability": "nonpayable",
      "type": "function"
    },
    {
      "inputs": [
        {
          "internalType": "uint256",
          "name": "stake",
          "type": "uint256"
        }
      ],
      "name": "addStake",
      "outputs": [
        {
          "internalType": "bool",
          "name": "success",
          "type": "bool"
        }
      ],
      "stateMutability": "nonpayable",
      "type": "function"
    },
    {
      "inputs": [],
      "name": "executeBet",
      "outputs": [
        {
          "internalType": "bool",
          "name": "outcome",
          "type": "bool"
        }
      ],
      "stateMutability": "nonpayable",
      "type": "function"
    },
    {
      "inputs": [
        {
          "internalType": "address",
          "name": "staker",
          "type": "address"
        }
      ],
      "name": "getStake",
      "outputs": [
        {
          "internalType": "uint256",
          "name": "_stake",
          "type": "uint256"
        }
      ],
      "stateMutability": "view",
      "type": "function",
      "constant": true
    },
    {
      "inputs": [],
      "name": "getOdds",
      "outputs": [
        {
          "internalType": "uint256",
          "name": "_odds",
          "type": "uint256"
        }
      ],
      "stateMutability": "view",
      "type": "function",
      "constant": true
    },
    {
      "inputs": [],
      "name": "getOwner",
      "outputs": [
        {
          "internalType": "address",
          "name": "_owner",
          "type": "address"
        }
      ],
      "stateMutability": "view",
      "type": "function",
      "constant": true
    },
    {
      "inputs": [],
      "name": "getTotalPublicStake",
      "outputs": [
        {
          "internalType": "uint256",
          "name": "_pub_stake",
          "type": "uint256"
        }
      ],
      "stateMutability": "view",
      "type": "function",
      "constant": true
    },
    {
      "inputs": [],
      "name": "getCurrentPublicStake",
      "outputs": [
        {
          "internalType": "uint256",
          "name": "_curr_pub_stake",
          "type": "uint256"
        }
      ],
      "stateMutability": "view",
      "type": "function",
      "constant": true
    },
    {
      "inputs": [],
      "name": "getOwnerFunded",
      "outputs": [
        {
          "internalType": "bool",
          "name": "_owner_funded",
          "type": "bool"
        }
      ],
      "stateMutability": "view",
      "type": "function",
      "constant": true
    },
    {
      "inputs": [],
      "name": "getPublicFunded",
      "outputs": [
        {
          "internalType": "bool",
          "name": "_public_funded",
          "type": "bool"
        }
      ],
      "stateMutability": "view",
      "type": "function",
      "constant": true
    },
    {
      "inputs": [],
      "name": "contractAddress",
      "outputs": [
        {
          "internalType": "address",
          "name": "_contract_address",
          "type": "address"
        }
      ],
      "stateMutability": "view",
      "type": "function",
      "constant": true
    },
    {
      "inputs": [],
      "name": "tokenAddress",
      "outputs": [
        {
          "internalType": "address",
          "name": "_token_address",
          "type": "address"
        }
      ],
      "stateMutability": "view",
      "type": "function",
      "constant": true
    }
  ],
  "bytecode": "0x608060405234801561001057600080fd5b506040516111cc3803806111cc8339818101604052608081101561003357600080fd5b8101908080519060200190929190805190602001909291908051906020019092919080519060200190929190505050336000806101000a81548173ffffffffffffffffffffffffffffffffffffffff021916908373ffffffffffffffffffffffffffffffffffffffff160217905550836001819055508260028190555081600360006101000a81548160ff0219169083151502179055508260048190555080600860006101000a81548173ffffffffffffffffffffffffffffffffffffffff021916908373ffffffffffffffffffffffffffffffffffffffff16021790555080600760016101000a81548173ffffffffffffffffffffffffffffffffffffffff021916908373ffffffffffffffffffffffffffffffffffffffff16021790555082600760019054906101000a900473ffffffffffffffffffffffffffffffffffffffff1673ffffffffffffffffffffffffffffffffffffffff166370a082316000809054906101000a900473ffffffffffffffffffffffffffffffffffffffff166040518263ffffffff1660e01b8152600401808273ffffffffffffffffffffffffffffffffffffffff1673ffffffffffffffffffffffffffffffffffffffff16815260200191505060206040518083038186803b15801561021457600080fd5b505afa158015610228573d6000803e3d6000fd5b505050506040513d602081101561023e57600080fd5b8101908080519060200190929190505050116102a5576040517f08c379a00000000000000000000000000000000000000000000000000000000081526004018080602001828103825260348152602001806111986034913960400191505060405180910390fd5b50505050610ee0806102b86000396000f3fe608060405234801561001057600080fd5b50600436106100ce5760003560e01c80639d76ea581161008c578063bd097e2111610066578063bd097e21146102b9578063dd6e67c2146102db578063eb4f16b5146102f9578063f6b4dfb41461033f576100ce565b80639d76ea58146101f95780639fdb8ce014610243578063ba62f15e14610261576100ce565b80624615bc146100d357806337a1705d146100f55780634c5be574146101175780637a76646014610135578063893d20e81461018d5780638a17486e146101d7575b600080fd5b6100db610389565b604051808215151515815260200191505060405180910390f35b6100fd6103a0565b604051808215151515815260200191505060405180910390f35b61011f6103a8565b6040518082815260200191505060405180910390f35b6101776004803603602081101561014b57600080fd5b81019080803573ffffffffffffffffffffffffffffffffffffffff1690602001909291905050506103b2565b6040518082815260200191505060405180910390f35b6101956103fb565b604051808273ffffffffffffffffffffffffffffffffffffffff1673ffffffffffffffffffffffffffffffffffffffff16815260200191505060405180910390f35b6101df610424565b604051808215151515815260200191505060405180910390f35b61020161043b565b604051808273ffffffffffffffffffffffffffffffffffffffff1673ffffffffffffffffffffffffffffffffffffffff16815260200191505060405180910390f35b61024b610465565b6040518082815260200191505060405180910390f35b6102a36004803603602081101561027757600080fd5b81019080803573ffffffffffffffffffffffffffffffffffffffff16906020019092919050505061046f565b6040518082815260200191505060405180910390f35b6102c1610487565b604051808215151515815260200191505060405180910390f35b6102e3610892565b6040518082815260200191505060405180910390f35b6103256004803603602081101561030f57600080fd5b810190808035906020019092919050505061089c565b604051808215151515815260200191505060405180910390f35b610347610d4e565b604051808273ffffffffffffffffffffffffffffffffffffffff1673ffffffffffffffffffffffffffffffffffffffff16815260200191505060405180910390f35b6000600360019054906101000a900460ff16905090565b600080905090565b6000600154905090565b6000600560008373ffffffffffffffffffffffffffffffffffffffff1673ffffffffffffffffffffffffffffffffffffffff168152602001908152602001600020549050919050565b60008060009054906101000a900473ffffffffffffffffffffffffffffffffffffffff16905090565b6000600760009054906101000a900460ff16905090565b6000600860009054906101000a900473ffffffffffffffffffffffffffffffffffffffff16905090565b6000600454905090565b60056020528060005260406000206000915090505481565b60008060009054906101000a900473ffffffffffffffffffffffffffffffffffffffff1673ffffffffffffffffffffffffffffffffffffffff163373ffffffffffffffffffffffffffffffffffffffff161461052e576040517f08c379a0000000000000000000000000000000000000000000000000000000008152600401808060200182810382526029815260200180610e826029913960400191505060405180910390fd5b6000600760019054906101000a900473ffffffffffffffffffffffffffffffffffffffff1673ffffffffffffffffffffffffffffffffffffffff1663dd62ed3e6000809054906101000a900473ffffffffffffffffffffffffffffffffffffffff16306040518363ffffffff1660e01b8152600401808373ffffffffffffffffffffffffffffffffffffffff1673ffffffffffffffffffffffffffffffffffffffff1681526020018273ffffffffffffffffffffffffffffffffffffffff1673ffffffffffffffffffffffffffffffffffffffff1681526020019250505060206040518083038186803b15801561062457600080fd5b505afa158015610638573d6000803e3d6000fd5b505050506040513d602081101561064e57600080fd5b810190808051906020019092919050505090506002548110156106bc576040517f08c379a0000000000000000000000000000000000000000000000000000000008152600401808060200182810382526030815260200180610d576030913960400191505060405180910390fd5b6000600760019054906101000a900473ffffffffffffffffffffffffffffffffffffffff1673ffffffffffffffffffffffffffffffffffffffff166323b872dd6000809054906101000a900473ffffffffffffffffffffffffffffffffffffffff16306002546040518463ffffffff1660e01b8152600401808473ffffffffffffffffffffffffffffffffffffffff1673ffffffffffffffffffffffffffffffffffffffff1681526020018373ffffffffffffffffffffffffffffffffffffffff1673ffffffffffffffffffffffffffffffffffffffff1681526020018281526020019350505050602060405180830381600087803b1580156107be57600080fd5b505af11580156107d2573d6000803e3d6000fd5b505050506040513d60208110156107e857600080fd5b810190808051906020019092919050505090508061086e576040517f08c379a00000000000000000000000000000000000000000000000000000000081526004018080602001828103825260168152602001807f66756e64696e67206e6f74207375636365737366756c0000000000000000000081525060200191505060405180910390fd5b6001600360016101000a81548160ff02191690831515021790555060019250505090565b6000600654905090565b6000600360019054906101000a900460ff16610903576040517f08c379a000000000000000000000000000000000000000000000000000000000815260040180806020018281038252604d815260200180610d87604d913960600191505060405180910390fd5b600760009054906101000a900460ff1615610969576040517f08c379a000000000000000000000000000000000000000000000000000000000815260040180806020018281038252603d815260200180610dd4603d913960400191505060405180910390fd5b600654600454038211156109c8576040517f08c379a0000000000000000000000000000000000000000000000000000000008152600401808060200182810382526038815260200180610e4a6038913960400191505060405180910390fd5b6000600760019054906101000a900473ffffffffffffffffffffffffffffffffffffffff1673ffffffffffffffffffffffffffffffffffffffff1663dd62ed3e33306040518363ffffffff1660e01b8152600401808373ffffffffffffffffffffffffffffffffffffffff1673ffffffffffffffffffffffffffffffffffffffff1681526020018273ffffffffffffffffffffffffffffffffffffffff1673ffffffffffffffffffffffffffffffffffffffff1681526020019250505060206040518083038186803b158015610a9d57600080fd5b505afa158015610ab1573d6000803e3d6000fd5b505050506040513d6020811015610ac757600080fd5b8101908080519060200190929190505050905082811015610b33576040517f08c379a0000000000000000000000000000000000000000000000000000000008152600401808060200182810382526039815260200180610e116039913960400191505060405180910390fd5b6000600760019054906101000a900473ffffffffffffffffffffffffffffffffffffffff1673ffffffffffffffffffffffffffffffffffffffff166323b872dd3330876040518463ffffffff1660e01b8152600401808473ffffffffffffffffffffffffffffffffffffffff1673ffffffffffffffffffffffffffffffffffffffff1681526020018373ffffffffffffffffffffffffffffffffffffffff1673ffffffffffffffffffffffffffffffffffffffff1681526020018281526020019350505050602060405180830381600087803b158015610c1257600080fd5b505af1158015610c26573d6000803e3d6000fd5b505050506040513d6020811015610c3c57600080fd5b8101908080519060200190929190505050905080610cc2576040517f08c379a00000000000000000000000000000000000000000000000000000000081526004018080602001828103825260168152602001807f66756e64696e67206e6f74207375636365737366756c0000000000000000000081525060200191505060405180910390fd5b83600560003373ffffffffffffffffffffffffffffffffffffffff1673ffffffffffffffffffffffffffffffffffffffff16815260200190815260200160002060008282540192505081905550836006600082825401925050819055506004546006541415610d47576001600760006101000a81548160ff0219169083151502179055505b5050919050565b60003090509056fe496e73756666696369656e7420616c6c6f77616e636520666f7220636f6e747261637420746f2062652066756e6465645468697320636f6e7472616374206973206e6f7420616363657074696e67207075626c6963207374616b65733a20746865206f776e657220686173206e6f742066756e646564206974207965745468697320636f6e74726163742068617320616c7265616479206265656e2066756c6c792066756e646564206279207075626c6963207374616b657273496e73756666696369656e7420616c6c6f77616e636520666f7220726571756573746564207374616b6520746f206265206578656375746564526571756573746564207374616b6520776f756c64206f76657273756273637269626520746865206265743a207374616b65206c6573732e6f6e6c792074686520636f6e7472616374206f776e65722063616e2066756e64207468697320626574a264697066735822122073690285ccae4887da51de2a933b8afaf43e496ddfb871755775cdd7155eb40064736f6c63430006090033496e73756666696369656e742062616c616e63653a2063616e2774207374616b65206d6f7265207468616e20796f752068617665",
  "immutableReferences": {},
  "source": "/*\nImplements a betting interface for simple wagers:\n\nBet {\n\towner -- creator of the contract that defines its parameters.\n\tconstructor (odds, stake, side) {\n\t\t- creates the bet defined by odds and stake.\n\t\t- places the message sender to the desired side.\n\t\t- sets the owner to message sender.\n\t}\n\taddStake(stake) {\n\t\t- makes sure contract capacity can still accept stake.\n\t\t- message sender stakes on the opposite side of the bet from contract owner.\n\t}\n\texecute() {\n\t\t- Checks that sender is bet creator (only they can execute)\n\t\t- Checks that the contract can be execute (when both sides of the bet are fully subscribed).\n\t\t- Runs the random mechanism resolving the bet.\n\t\t- Awards the winner the pool of coin.\n\t}\n}\n*/\n\npragma solidity ^0.6.9;\n\nimport \"./EIP20Interface.sol\";\n\ncontract BetAss {\n\tuint256 constant odds_denom = 10000; // what we divide odds by for the chance of a true outcome\n\t\n\taddress owner; // the address of the contract creator, will be owner b/c they fully own one side of bet\n\tuint256 odds; // chance of true outcome --> odds / odds_denom\n\t\n\t// Formula to ensure equal odds weighted betting pool:\n\t// (1 - odds/odds_denom) * true_stake = (odds/odds_denom) * false_stake\n\t\n\t// vars for the owner information\n\tuint256 owner_stake;\n\tbool owner_side;\n\tbool owner_funded; // whether the owner has staked their side of the bet.\n\t\n\t// vars for the public stakers: call public whoever takes the opposite side of the owner\n\tuint256 total_public_stake; // total value that the public needs to put on the opposite side of this bet\n\tmapping (address => uint256) public public_stakes; // mapping to hold the list of all public stakers\n\tuint256 curr_public_stake; // how much has currently been staked by the public\n\tbool public_funded; // only true when total_public_stake == curr_public_stake\n\t\n\t// token that will be what this bet is denominated in\n\tEIP20Interface token;\n\taddress token_address;\n\n\tconstructor(\n\t\tuint256 _odds, \n\t\tuint256 _stake, // how much the contract owner is staking on their side of the bet\n\t\tbool _side, // what side of the bet the contract owner is on.\n\t\taddress _token_address \n\t) public {\n    \t// set the owner of the contract\n    \towner = msg.sender;\n    \todds = _odds;\n    \towner_stake = _stake;\n    \towner_side = _side;\n    \t// TODO: actually calculate the public stake correctly using proportions\n    \ttotal_public_stake = _stake; \n    \t// creates an instance of the token contract to be used throughout the bet contract\n    \ttoken_address = _token_address;\n    \ttoken = EIP20Interface(_token_address);\n    \t// does a balance check\n    \trequire(token.balanceOf(owner) > _stake, \"Insufficient balance: can't stake more than you have\");    \t\n\t}\n\n\t/*\n\tMethod must be called by the contract owner. The contract owner must have already given this contract\n\tthe neccessary allowance to stake the entire bet. If successful, funded var becomes true, and now betters\n\tcan stake on the other side of the bet. If not successful, the contract will remain in the unstaked state,\n\twhere no other betters can enter.\n\t*/\n\tfunction fundContract() public returns(bool success) {\n\t\t// verifies the sender\n\t\trequire(msg.sender == owner, \"only the contract owner can fund this bet\");\n\t\t// verifies that contract has sufficient allowance to initiate the transfer\n\t\tuint256 allowed = token.allowance(owner, address(this));\n\t\trequire(allowed >= owner_stake, \"Insufficient allowance for contract to be funded\");\n\t\t// Initiates the transfer\n\t\tbool transferred = token.transferFrom(owner, address(this), owner_stake);\n\t\trequire(transferred, \"funding not successful\");\n\t\t// only reach this line if the contract has been funded\n\t\towner_funded = true;\n\t\treturn true;\t\t\n\t}\n\n\t/*\n\tWill only succeed if stake < token allowance and stake < notowner_stake.\n\tAdds the message sender to the pool of bets taking the opposite side of the contract\n\towner's bet. Payout is proportional to stake percent of total pool.\n\t*/\n\tfunction addStake(uint256 stake) public returns(bool success) {\n\t\t// checks that the owner has funded this contract\n\t\t// TODO: might not actually need this check, but that's a design decision\n\t\trequire(owner_funded, \"This contract is not accepting public stakes: the owner has not funded it yet\");\n\t\t// check that the contract has not yet been fully funded by the public\n\t\trequire(!public_funded, \"This contract has already been fully funded by public stakers\");\n\t\t// checks that there's enough room left in the public money pool\n\t\trequire(stake <= total_public_stake - curr_public_stake,\n\t\t\t\t\"Requested stake would oversubscribe the bet: stake less.\");\n\t\t// checks that there is sufficient alloance\n\t\tuint256 allowed = token.allowance(msg.sender, address(this));\n\t\trequire(allowed >= stake, \"Insufficient allowance for requested stake to be executed\");\n\t\t// initiates the transfer\n\t\tbool transferred = token.transferFrom(msg.sender, address(this), stake);\n\t\trequire(transferred, \"funding not successful\");\n\t\t// means we succeeded, so add msg.sender to the public stakers\n\t\tpublic_stakes[msg.sender] += stake; // maps are 0 initialized, so this is fine\n\t\tcurr_public_stake += stake;\n\t\t// updates the public_funded var\n\t\tif (curr_public_stake == total_public_stake) {\n\t\t\tpublic_funded = true;\n\t\t}\n\t}\n\n\t/*\n\tTODO: execute contract. Where the winner will be deceided and paid.\n\t*/\n\tfunction executeBet() public returns(bool outcome) {\n\t\treturn false;\n\t}\n\n\t/*\n\tReturns the amount staker has staked in the public pool.\n\t*/\n\tfunction getStake(address staker) public view returns(uint256 _stake) {\n\t\treturn public_stakes[staker];\n\t}\n\n\t// get functions for all main variables\n\tfunction getOdds() public view returns(uint256 _odds) {\n\t\treturn odds;\n\t}\n\n\tfunction getOwner() public view returns(address _owner) {\n\t\treturn owner;\n\t}\n\n\tfunction getTotalPublicStake() public view returns(uint256 _pub_stake) {\n\t\treturn total_public_stake;\n\t}\n\n\tfunction getCurrentPublicStake() public view returns(uint256 _curr_pub_stake) {\n\t\treturn curr_public_stake;\n\t}\n\n\tfunction getOwnerFunded() public view returns(bool _owner_funded) {\n\t\treturn owner_funded;\n\t}\n\n\tfunction getPublicFunded() public view returns(bool _public_funded) {\n\t\treturn public_funded;\n\t}\n\n\tfunction contractAddress() public view returns(address _contract_address) {\n\t\treturn address(this);\n\t}\n\n\tfunction tokenAddress() public view returns(address _token_address) {\n\t\treturn token_address;\n\t}\n}\n\n",
  "sourcePath": "/Users/aram/code/projects/AssCoin/contracts/BetAss.sol",
  "compiler": {
    "name": "solc",
    "version": "0.6.9+commit.3e3065ac.Emscripten.clang"
  },
  "schemaVersion": "3.2.1",
  "updatedAt": "2020-07-04T07:39:52.027Z",
  "networkType": "ethereum",
  "devdoc": {
    "methods": {}
  },
  "userdoc": {
    "methods": {}
  }
}