{
  "contractName": "BetAss",
  "abi": [
    {
      "inputs": [
        {
          "internalType": "uint256",
          "name": "_odds",
          "type": "uint256"
        },
        {
          "internalType": "uint256",
          "name": "_stake",
          "type": "uint256"
        },
        {
          "internalType": "address",
          "name": "_token_address",
          "type": "address"
        }
      ],
      "stateMutability": "nonpayable",
      "type": "constructor"
    },
    {
      "inputs": [],
      "name": "fundContract",
      "outputs": [
        {
          "internalType": "bool",
          "name": "success",
          "type": "bool"
        }
      ],
      "stateMutability": "nonpayable",
      "type": "function"
    },
    {
      "inputs": [
        {
          "internalType": "uint256",
          "name": "stake",
          "type": "uint256"
        }
      ],
      "name": "addStake",
      "outputs": [
        {
          "internalType": "bool",
          "name": "success",
          "type": "bool"
        }
      ],
      "stateMutability": "nonpayable",
      "type": "function"
    },
    {
      "inputs": [],
      "name": "executeBet",
      "outputs": [
        {
          "internalType": "bool",
          "name": "outcome",
          "type": "bool"
        }
      ],
      "stateMutability": "nonpayable",
      "type": "function"
    },
    {
      "inputs": [],
      "name": "payoutWinner",
      "outputs": [
        {
          "internalType": "bool",
          "name": "success",
          "type": "bool"
        }
      ],
      "stateMutability": "nonpayable",
      "type": "function"
    },
    {
      "inputs": [],
      "name": "closeContract",
      "outputs": [
        {
          "internalType": "bool",
          "name": "success",
          "type": "bool"
        }
      ],
      "stateMutability": "nonpayable",
      "type": "function"
    },
    {
      "inputs": [],
      "name": "getOdds",
      "outputs": [
        {
          "internalType": "uint256",
          "name": "_odds",
          "type": "uint256"
        }
      ],
      "stateMutability": "view",
      "type": "function",
      "constant": true
    },
    {
      "inputs": [],
      "name": "getOwner",
      "outputs": [
        {
          "internalType": "address",
          "name": "_owner",
          "type": "address"
        }
      ],
      "stateMutability": "view",
      "type": "function",
      "constant": true
    },
    {
      "inputs": [],
      "name": "getPublicStake",
      "outputs": [
        {
          "internalType": "uint256",
          "name": "_pub_stake",
          "type": "uint256"
        }
      ],
      "stateMutability": "view",
      "type": "function",
      "constant": true
    },
    {
      "inputs": [],
      "name": "getOwnerFunded",
      "outputs": [
        {
          "internalType": "bool",
          "name": "_owner_funded",
          "type": "bool"
        }
      ],
      "stateMutability": "view",
      "type": "function",
      "constant": true
    },
    {
      "inputs": [],
      "name": "getPublicFunded",
      "outputs": [
        {
          "internalType": "bool",
          "name": "_public_funded",
          "type": "bool"
        }
      ],
      "stateMutability": "view",
      "type": "function",
      "constant": true
    },
    {
      "inputs": [],
      "name": "contractAddress",
      "outputs": [
        {
          "internalType": "address",
          "name": "_contract_address",
          "type": "address"
        }
      ],
      "stateMutability": "view",
      "type": "function",
      "constant": true
    },
    {
      "inputs": [],
      "name": "tokenAddress",
      "outputs": [
        {
          "internalType": "address",
          "name": "_token_address",
          "type": "address"
        }
      ],
      "stateMutability": "view",
      "type": "function",
      "constant": true
    },
    {
      "inputs": [],
      "name": "getWinner",
      "outputs": [
        {
          "internalType": "bool",
          "name": "ownerWon",
          "type": "bool"
        }
      ],
      "stateMutability": "view",
      "type": "function",
      "constant": true
    }
  ],
  "bytecode": "0x608060405234801561001057600080fd5b506040516116b23803806116b28339818101604052606081101561003357600080fd5b810190808051906020019092919080519060200190929190805190602001909291905050508260008190555033600160006101000a81548173ffffffffffffffffffffffffffffffffffffffff021916908373ffffffffffffffffffffffffffffffffffffffff16021790555081600281905550600054600054606403816100b757fe5b046002540260048190555080600660006101000a81548173ffffffffffffffffffffffffffffffffffffffff021916908373ffffffffffffffffffffffffffffffffffffffff16021790555080600560046101000a81548173ffffffffffffffffffffffffffffffffffffffff021916908373ffffffffffffffffffffffffffffffffffffffff16021790555081600560049054906101000a900473ffffffffffffffffffffffffffffffffffffffff1673ffffffffffffffffffffffffffffffffffffffff166370a08231600160009054906101000a900473ffffffffffffffffffffffffffffffffffffffff166040518263ffffffff1660e01b8152600401808273ffffffffffffffffffffffffffffffffffffffff1673ffffffffffffffffffffffffffffffffffffffff16815260200191505060206040518083038186803b15801561020657600080fd5b505afa15801561021a573d6000803e3d6000fd5b505050506040513d602081101561023057600080fd5b810190808051906020019092919050505011610297576040517f08c379a000000000000000000000000000000000000000000000000000000000815260040180806020018281038252603481526020018061167e6034913960400191505060405180910390fd5b5050506113d5806102a96000396000f3fe608060405234801561001057600080fd5b50600436106100ce5760003560e01c8063893d20e81161008c5780639d76ea58116100665780639d76ea5814610225578063bd097e211461026f578063eb4f16b514610291578063f6b4dfb4146102d7576100ce565b8063893d20e8146101975780638a17486e146101e15780638e7ea5b214610203576100ce565b80624615bc146100d357806307552463146100f557806337a1705d146101175780634c5be5741461013957806352ba2e6714610157578063610be65414610175575b600080fd5b6100db610321565b604051808215151515815260200191505060405180910390f35b6100fd610338565b604051808215151515815260200191505060405180910390f35b61011f6104c3565b604051808215151515815260200191505060405180910390f35b610141610728565b6040518082815260200191505060405180910390f35b61015f610731565b6040518082815260200191505060405180910390f35b61017d61073b565b604051808215151515815260200191505060405180910390f35b61019f610883565b604051808273ffffffffffffffffffffffffffffffffffffffff1673ffffffffffffffffffffffffffffffffffffffff16815260200191505060405180910390f35b6101e96108ad565b604051808215151515815260200191505060405180910390f35b61020b6108c4565b604051808215151515815260200191505060405180910390f35b61022d610904565b604051808273ffffffffffffffffffffffffffffffffffffffff1673ffffffffffffffffffffffffffffffffffffffff16815260200191505060405180910390f35b61027761092e565b604051808215151515815260200191505060405180910390f35b6102bd600480360360208110156102a757600080fd5b8101908080359060200190929190505050610abe565b604051808215151515815260200191505060405180910390f35b6102df610c5e565b604051808273ffffffffffffffffffffffffffffffffffffffff1673ffffffffffffffffffffffffffffffffffffffff16815260200191505060405180910390f35b6000600360009054906101000a900460ff16905090565b6000600560029054906101000a900460ff1661039f576040517f08c379a00000000000000000000000000000000000000000000000000000000081526004018080602001828103825260278152602001806113506027913960400191505060405180910390fd5b600560039054906101000a900460ff1615610405576040517f08c379a000000000000000000000000000000000000000000000000000000000815260040180806020018281038252602a8152602001806110e3602a913960400191505060405180910390fd5b60006004546002540190506000600181111561041d57fe5b600560019054906101000a900460ff16600181111561043857fe5b14156104715761046b30600160009054906101000a900473ffffffffffffffffffffffffffffffffffffffff1683610c66565b506104a0565b61049e30600360019054906101000a900473ffffffffffffffffffffffffffffffffffffffff1683610c66565b505b6001600560036101000a81548160ff021916908315150217905550600191505090565b6000600160009054906101000a900473ffffffffffffffffffffffffffffffffffffffff1673ffffffffffffffffffffffffffffffffffffffff163373ffffffffffffffffffffffffffffffffffffffff161461056b576040517f08c379a000000000000000000000000000000000000000000000000000000000815260040180806020018281038252603081526020018061123d6030913960400191505060405180910390fd5b600360009054906101000a900460ff166105d0576040517f08c379a00000000000000000000000000000000000000000000000000000000081526004018080602001828103825260328152602001806112f36032913960400191505060405180910390fd5b600560009054906101000a900460ff16610635576040517f08c379a000000000000000000000000000000000000000000000000000000000815260040180806020018281038252604181526020018061116f6041913960600191505060405180910390fd5b600560029054906101000a900460ff161561069b576040517f08c379a000000000000000000000000000000000000000000000000000000000815260040180806020018281038252602781526020018061126d6027913960400191505060405180910390fd5b60006106a76064610f26565b90506001600560026101000a81548160ff0219169083151502179055506000548110156106f7576000600560016101000a81548160ff021916908360018111156106ed57fe5b021790555061071c565b6001600560016101000a81548160ff0219169083600181111561071657fe5b02179055505b60005481101591505090565b60008054905090565b6000600454905090565b6000600160009054906101000a900473ffffffffffffffffffffffffffffffffffffffff1673ffffffffffffffffffffffffffffffffffffffff163373ffffffffffffffffffffffffffffffffffffffff16146107e3576040517f08c379a00000000000000000000000000000000000000000000000000000000081526004018080602001828103825260268152602001806112946026913960400191505060405180910390fd5b600560039054906101000a900460ff16610848576040517f08c379a00000000000000000000000000000000000000000000000000000000081526004018080602001828103825260408152602001806111fd6040913960400191505060405180910390fd5b600160009054906101000a900473ffffffffffffffffffffffffffffffffffffffff1673ffffffffffffffffffffffffffffffffffffffff16ff5b6000600160009054906101000a900473ffffffffffffffffffffffffffffffffffffffff16905090565b6000600560009054906101000a900460ff16905090565b60008060018111156108d257fe5b600560019054906101000a900460ff1660018111156108ed57fe5b14156108fc5760019050610901565b600090505b90565b6000600660009054906101000a900473ffffffffffffffffffffffffffffffffffffffff16905090565b6000600160009054906101000a900473ffffffffffffffffffffffffffffffffffffffff1673ffffffffffffffffffffffffffffffffffffffff163373ffffffffffffffffffffffffffffffffffffffff16146109d6576040517f08c379a00000000000000000000000000000000000000000000000000000000081526004018080602001828103825260298152602001806113776029913960400191505060405180910390fd5b600360009054906101000a900460ff1615610a3c576040517f08c379a000000000000000000000000000000000000000000000000000000000815260040180806020018281038252602b815260200180611325602b913960400191505060405180910390fd5b610a6b600160009054906101000a900473ffffffffffffffffffffffffffffffffffffffff1630600254610f6a565b50610a9b600160009054906101000a900473ffffffffffffffffffffffffffffffffffffffff1630600254610c66565b506001600360006101000a81548160ff0219169083151502179055506001905090565b6000600360009054906101000a900460ff16610b25576040517f08c379a000000000000000000000000000000000000000000000000000000000815260040180806020018281038252604d8152602001806111b0604d913960600191505060405180910390fd5b600560009054906101000a900460ff1615610b8b576040517f08c379a000000000000000000000000000000000000000000000000000000000815260040180806020018281038252603d815260200180611132603d913960400191505060405180910390fd5b6004548214610be5576040517f08c379a000000000000000000000000000000000000000000000000000000000815260040180806020018281038252602581526020018061110d6025913960400191505060405180910390fd5b610bf0333084610f6a565b50610bfc333084610c66565b5033600360016101000a81548173ffffffffffffffffffffffffffffffffffffffff021916908373ffffffffffffffffffffffffffffffffffffffff1602179055506001600560006101000a81548160ff021916908315150217905550919050565b600030905090565b60003073ffffffffffffffffffffffffffffffffffffffff168473ffffffffffffffffffffffffffffffffffffffff161415610d8a57600560049054906101000a900473ffffffffffffffffffffffffffffffffffffffff1673ffffffffffffffffffffffffffffffffffffffff1663a9059cbb84846040518363ffffffff1660e01b8152600401808373ffffffffffffffffffffffffffffffffffffffff1673ffffffffffffffffffffffffffffffffffffffff16815260200182815260200192505050602060405180830381600087803b158015610d4557600080fd5b505af1158015610d59573d6000803e3d6000fd5b505050506040513d6020811015610d6f57600080fd5b81019080805190602001909291905050505060019050610f1f565b6000600560049054906101000a900473ffffffffffffffffffffffffffffffffffffffff1673ffffffffffffffffffffffffffffffffffffffff166323b872dd8686866040518463ffffffff1660e01b8152600401808473ffffffffffffffffffffffffffffffffffffffff1673ffffffffffffffffffffffffffffffffffffffff1681526020018373ffffffffffffffffffffffffffffffffffffffff1673ffffffffffffffffffffffffffffffffffffffff1681526020018281526020019350505050602060405180830381600087803b158015610e6957600080fd5b505af1158015610e7d573d6000803e3d6000fd5b505050506040513d6020811015610e9357600080fd5b8101908080519060200190929190505050905080610f19576040517f08c379a000000000000000000000000000000000000000000000000000000000815260040180806020018281038252601d8152602001807f746f6b656e207472616e73666572206e6f74207375636365737366756c00000081525060200191505060405180910390fd5b60019150505b9392505050565b600081424460405160200180838152602001828152602001925050506040516020818303038152906040528051906020012060001c81610f6257fe5b069050919050565b600080600560049054906101000a900473ffffffffffffffffffffffffffffffffffffffff1673ffffffffffffffffffffffffffffffffffffffff1663dd62ed3e86866040518363ffffffff1660e01b8152600401808373ffffffffffffffffffffffffffffffffffffffff1673ffffffffffffffffffffffffffffffffffffffff1681526020018273ffffffffffffffffffffffffffffffffffffffff1673ffffffffffffffffffffffffffffffffffffffff1681526020019250505060206040518083038186803b15801561104057600080fd5b505afa158015611054573d6000803e3d6000fd5b505050506040513d602081101561106a57600080fd5b81019080805190602001909291905050509050828110156110d6576040517f08c379a00000000000000000000000000000000000000000000000000000000081526004018080602001828103825260398152602001806112ba6039913960400191505060405180910390fd5b6001915050939250505056fe5468697320636f6e74726163742068617320616c72656164792070616964206f75742077696e6e6572734d757374207374616b65207468652066756c6c20616d6f756e74206f6620746865206265745468697320636f6e74726163742068617320616c7265616479206265656e2066756c6c792066756e64656420627920616e6f74686572207374616b65725468697320636f6e74726163742773207075626c69632062657474696e6720706f6f6c20686173206e6f74206265656e2066756c6c792066756e646564207965745468697320636f6e7472616374206973206e6f7420616363657074696e67207075626c6963207374616b65733a20746865206f776e657220686173206e6f742066756e64656420697420796574436f6e74726163742063616e206f6e6c7920626520636c6f736564206166746572207468652062657420706f6f6c20686173206265656e2070616964206f75744f6e6c792074686520636f6e7472616374206f776e65722063616e20657865637574652074686520636f6e74726163745468697320636f6e74726163742068617320616c7265616479206265656e2065786563757465644f6e6c7920746865206f776e65722063616e20636c6f7365207468697320636f6e7472616374496e73756666696369656e7420616c6c6f77616e636520666f7220726571756573746564207374616b6520746f2062652065786563757465645468697320636f6e747261637420686173206e6f74206265656e2066756e64656420627920697473206f776e6572207965745468697320636f6e74726163742068617320616c7265616479206265656e206f776e65722066756e6465644d75737420657865637574652074686520636f6e7472616374206265666f7265207061796f75746f6e6c792074686520636f6e7472616374206f776e65722063616e2066756e64207468697320626574a26469706673582212202657bf351362d0c876362777df3bf47e331e1e90296a429348457b43dc83d9f864736f6c63430006090033496e73756666696369656e742062616c616e63653a2063616e2774207374616b65206d6f7265207468616e20796f752068617665",
  "immutableReferences": {},
  "source": "/*\nImplements a betting interface for simple wagers:\n\nBet {\n\towner -- creator of the contract that defines its parameters.\n\tconstructor (odds, stake, side) {\n\t\t- creates the bet defined by odds and stake.\n\t\t- places the message sender to the desired side.\n\t\t- sets the owner to message sender.\n\t}\n\taddStake(stake) {\n\t\t- makes sure contract capacity can still accept stake.\n\t\t- message sender stakes on the opposite side of the bet from contract owner.\n\t}\n\texecute() {\n\t\t- Checks that sender is bet creator (only they can execute)\n\t\t- Checks that the contract can be execute (when both sides of the bet are fully subscribed).\n\t\t- Runs the random mechanism resolving the bet.\n\t\t- Awards the winner the pool of coin.\n\t}\n}\n*/\n\npragma solidity ^0.6.9;\n\nimport \"./EIP20Interface.sol\";\n\ncontract BetAss {\n\tuint256 constant odds_denom = 100; // what we divide odds by for the chance of a true outcome\n\tuint256 odds; // chance of true outcome --> odds / odds_denom\n\t\n\t// Formula to ensure equal odds weighted betting pool:\n\t// public_stake = ((odds_denom - odds) / odds) * owner_stake\n\t\n\t// vars for the owner information\n\taddress payable owner; // the address of the contract creator, will be owner b/c they fully own one side of bet\n\tuint256 owner_stake;\n\tbool owner_funded; // whether the owner has staked their side of the bet.\n\t\n\t// vars for the public stakers: call public whoever takes the opposite side of the owner\n\taddress payable public_staker;\n\tuint256 public_stake; // total value that the public needs to put on the opposite side of this bet\n\tbool public_funded; // only true when total_public_stake == curr_public_stake\n\t\n\tenum Outcome { OWNER, PUBLIC } // for the 2 possible winners of the contract\n\tOutcome winner;\n\n\tbool executed; // flag after the execute function has been run.\n\tbool paid; // flag after the winnings have been paid out\n\n\t// token that will be what this bet is denominated in\n\tEIP20Interface token;\n\taddress token_address;\n\n\tconstructor(\n\t\tuint256 _odds, \n\t\tuint256 _stake, // how much the contract owner is staking on their side of the bet\n\t\taddress _token_address \n\t) public {\n\t\todds = _odds;\n    \t// set the owner of the contract\n    \towner = msg.sender;\n    \towner_stake = _stake;\n    \t// TODO: higher precision calculation\n    \tpublic_stake = owner_stake * ((odds_denom - odds) / odds);\n    \t// creates an instance of the token contract to be used throughout the bet contract\n    \ttoken_address = _token_address;\n    \ttoken = EIP20Interface(_token_address);\n    \t// does a balance check\n    \trequire(token.balanceOf(owner) > _stake, \"Insufficient balance: can't stake more than you have\");    \t\n\t}\n\n\t/*\n\tMethod must be called by the contract owner. The contract owner must have already given this contract\n\tthe neccessary allowance to stake the entire bet. If successful, funded var becomes true, and now betters\n\tcan stake on the other side of the bet. If not successful, the contract will remain in the unstaked state,\n\twhere no other betters can enter.\n\t*/\n\tfunction fundContract() public returns(bool success) {\n\t\t// verifies the sender\n\t\trequire(msg.sender == owner, \"only the contract owner can fund this bet\");\n\t\t// verifies that the contract hasn't already been funded\n\t\trequire(!owner_funded, \"This contract has already been owner funded\");\n\t\t// verifies that contract has sufficient allowance to initiate the transfer\n\t\tcheckAllowance(owner, address(this), owner_stake);\n\t\t// Initiates the transfer\n\t\ttransferCoin(owner, address(this), owner_stake);\n\t\t// only reach this line if the contract has been funded\n\t\towner_funded = true;\n\t\treturn true;\t\t\n\t}\n\n\t/*\n\tWill only succeed if stake < token allowance and public funded false.\n\tMakes message sender take the opposite side of the bet from owner.\n\t*/\n\tfunction addStake(uint256 stake) public returns(bool success) {\n\t\t// checks that the owner has funded this contract\n\t\t// TODO: might not actually need this check, but that's a design decision\n\t\trequire(owner_funded, \"This contract is not accepting public stakes: the owner has not funded it yet\");\n\t\t// check that the contract has not yet been fully funded by the public\n\t\trequire(!public_funded, \"This contract has already been fully funded by another staker\");\n\t\t// makes sure stake is nonzero\n\t\trequire(stake == public_stake, \"Must stake the full amount of the bet\");\n\t\t// checks that there is sufficient alloance\n\t\tcheckAllowance(msg.sender, address(this), stake);\n\t\t// initiates the transfer\n\t\ttransferCoin(msg.sender, address(this), stake);\n\t\t// means we succeeded, so make msg.sender the public stakers\n\t\tpublic_staker = msg.sender;\n\t\tpublic_funded = true;\n\t}\n\n\t/*\n\tExecute the contract in the following steps:\n\t- Check that the contract can be executed.\n\t- Run the random number generator.\n\t- Set winner var to owner or public.\n\t*/\n\tfunction executeBet() public returns(bool outcome) {\n\t\t// checks that the owner is executing the contract\n\t\trequire(msg.sender == owner, \"Only the contract owner can execute the contract\");\n\t\t// make sure that both sides of the bet are funded\n\t\trequire(owner_funded, \"This contract has not been funded by its owner yet\");\n\t\trequire(public_funded, \"This contract's public betting pool has not been fully funded yet\");\n\t\t// makes sure that the contract hasn't already been executed\n\t\trequire(!executed, \"This contract has already been executed\");\n\t\t// Run the RNG, effectively executing the bet\n\t\tuint256 rand = randomInt(odds_denom);\n\t\texecuted = true;\n\t\t// By definition, the owner always takes the under.\n \t\tif (rand < odds) {\n\t\t\t// means the owner won\n\t\t\twinner = Outcome.OWNER;\n\t\t} else {\n\t\t\t// means the public won\n\t\t\twinner = Outcome.PUBLIC;\n\t\t}\n\t\treturn !(rand < odds); // returns if the owner won the bet\n\t}\n\n\t/*\n\tThe randomness engine of this contract. Will return a pseudo random integer\n\tin the range [0, max).\n\t*/\n\tfunction randomInt(uint256 max) internal returns (uint256 rand) {\n\t\treturn uint256(keccak256(abi.encode(block.timestamp, block.difficulty)))%max;\n\t}\n\n\t/*\t\n\tOnce the contract has been executed, anyone can call this function to payout\n\tthe winner of the bet.\n\t*/\n\tfunction payoutWinner() public returns (bool success) {\n\t\t// check that the contract has been executed\n\t\trequire(executed, \"Must execute the contract before payout\");\n\t\t// makes sure the contract hasn't already been paid out\n\t\trequire(!paid, \"This contract has already paid out winners\");\n\t\t// pays out depending on the winner\n\t\tuint256 payout = owner_stake + public_stake;\n\t\tif (winner == Outcome.OWNER) {\n\t\t\t// means the contract owner gets the full balance\n\t\t\t// does the transfer\n\t\t\ttransferCoin(address(this), owner, payout);\n\t\t} else {\n\t\t\t// means the public staker gets the full balance\n\t\t\ttransferCoin(address(this), public_staker, payout);\n\t\t}\n\t\tpaid = true;\n\t\treturn true;\n\t}\n\n\t/*\n\tSelf destruct function to run after the bet has been executed and payed out.\n\tNeeds to be run by the contract owner.\n\t*/\n\tfunction closeContract() public returns (bool success) {\n\t\t// checks that the call is coming from the contract owner\n\t\trequire(msg.sender == owner, \"Only the owner can close this contract\");\n\t\t// checks that the contract has already been paid out\n\t\trequire(paid, \"Contract can only be closed after the bet pool has been paid out\");\n\t\tselfdestruct(owner);\n\t\treturn true;\n\t}\n\n\t// \n\t// TRANSACTION HELPER FUNCTIONS\n\t//\n\t/* checks that token allowance from --> to is > min */\n\tfunction checkAllowance(address _from, address _to, uint256 min)  internal returns(bool success){\n\t\tuint256 allowed = token.allowance(_from, _to);\n\t\trequire(allowed >= min, \"Insufficient allowance for requested stake to be executed\");\n\t\treturn true;\n\t}\n\n\t/* Helper function for doing coin transfers. Includes an error message.*/\t\n\tfunction transferCoin(address _from, address _to, uint256 amount) internal returns(bool success) {\n\t\t// if sending coin from this contract, adds an allowance\n\t\tif (_from == address(this)) {\n\t\t\ttoken.transfer(_to, amount);\n\t\t\treturn true;\n\t\t}\n\t\tbool transferred = token.transferFrom(_from, _to, amount);\n\t\trequire(transferred, \"token transfer not successful\");\n\t\treturn true;\n\t}\n\n\t//\n\t// VARIABLE GET FUNCTIONS\n\t//\n\n\tfunction getOdds() public view returns(uint256 _odds) {\n\t\treturn odds;\n\t}\n\n\tfunction getOwner() public view returns(address _owner) {\n\t\treturn owner;\n\t}\n\n\tfunction getPublicStake() public view returns(uint256 _pub_stake) {\n\t\treturn public_stake;\n\t}\n\n\tfunction getOwnerFunded() public view returns(bool _owner_funded) {\n\t\treturn owner_funded;\n\t}\n\n\tfunction getPublicFunded() public view returns(bool _public_funded) {\n\t\treturn public_funded;\n\t}\n\n\tfunction contractAddress() public view returns(address _contract_address) {\n\t\treturn address(this);\n\t}\n\n\tfunction tokenAddress() public view returns(address _token_address) {\n\t\treturn token_address;\n\t}\n\n\tfunction getWinner() public view returns(bool ownerWon) {\n\t\tif (winner == Outcome.OWNER) {\n\t\t\treturn true;\n\t\t} else {\n\t\t\treturn false;\n\t\t}\n\t}\n}\n\n",
  "sourcePath": "/Users/aram/code/projects/AssCoin/contracts/BetAss.sol",
  "compiler": {
    "name": "solc",
    "version": "0.6.9+commit.3e3065ac.Emscripten.clang"
  },
  "schemaVersion": "3.2.1",
  "updatedAt": "2020-07-06T03:10:01.790Z",
  "networkType": "ethereum",
  "devdoc": {
    "methods": {}
  },
  "userdoc": {
    "methods": {}
  }
}